{
  "contractName": "kitties",
  "abi": [
    {
      "inputs": [],
      "stateMutability": "nonpayable",
      "type": "constructor"
    },
    {
      "anonymous": false,
      "inputs": [
        {
          "indexed": true,
          "internalType": "address",
          "name": "owner",
          "type": "address"
        },
        {
          "indexed": true,
          "internalType": "address",
          "name": "approved",
          "type": "address"
        },
        {
          "indexed": true,
          "internalType": "uint256",
          "name": "tokenId",
          "type": "uint256"
        }
      ],
      "name": "Approval",
      "type": "event"
    },
    {
      "anonymous": false,
      "inputs": [
        {
          "indexed": true,
          "internalType": "address",
          "name": "owner",
          "type": "address"
        },
        {
          "indexed": true,
          "internalType": "address",
          "name": "operator",
          "type": "address"
        },
        {
          "indexed": false,
          "internalType": "bool",
          "name": "approved",
          "type": "bool"
        }
      ],
      "name": "ApprovalForAll",
      "type": "event"
    },
    {
      "anonymous": false,
      "inputs": [
        {
          "indexed": true,
          "internalType": "address",
          "name": "previousOwner",
          "type": "address"
        },
        {
          "indexed": true,
          "internalType": "address",
          "name": "newOwner",
          "type": "address"
        }
      ],
      "name": "OwnershipTransferred",
      "type": "event"
    },
    {
      "anonymous": false,
      "inputs": [
        {
          "indexed": true,
          "internalType": "address",
          "name": "from",
          "type": "address"
        },
        {
          "indexed": true,
          "internalType": "address",
          "name": "to",
          "type": "address"
        },
        {
          "indexed": true,
          "internalType": "uint256",
          "name": "tokenId",
          "type": "uint256"
        }
      ],
      "name": "Transfer",
      "type": "event"
    },
    {
      "anonymous": false,
      "inputs": [
        {
          "indexed": false,
          "internalType": "uint256",
          "name": "id",
          "type": "uint256"
        },
        {
          "indexed": false,
          "internalType": "uint256",
          "name": "motherID",
          "type": "uint256"
        },
        {
          "indexed": false,
          "internalType": "uint256",
          "name": "fatherID",
          "type": "uint256"
        },
        {
          "indexed": false,
          "internalType": "uint256",
          "name": "DNA",
          "type": "uint256"
        },
        {
          "indexed": false,
          "internalType": "uint256",
          "name": "Generation",
          "type": "uint256"
        },
        {
          "indexed": false,
          "internalType": "uint64",
          "name": "birthtime",
          "type": "uint64"
        }
      ],
      "name": "catbirth",
      "type": "event"
    },
    {
      "inputs": [
        {
          "internalType": "address",
          "name": "to",
          "type": "address"
        },
        {
          "internalType": "uint256",
          "name": "tokenId",
          "type": "uint256"
        }
      ],
      "name": "approve",
      "outputs": [],
      "stateMutability": "nonpayable",
      "type": "function"
    },
    {
      "inputs": [
        {
          "internalType": "address",
          "name": "owner",
          "type": "address"
        }
      ],
      "name": "balanceOf",
      "outputs": [
        {
          "internalType": "uint256",
          "name": "",
          "type": "uint256"
        }
      ],
      "stateMutability": "view",
      "type": "function",
      "constant": true
    },
    {
      "inputs": [
        {
          "internalType": "uint256",
          "name": "tokenId",
          "type": "uint256"
        }
      ],
      "name": "getApproved",
      "outputs": [
        {
          "internalType": "address",
          "name": "",
          "type": "address"
        }
      ],
      "stateMutability": "view",
      "type": "function",
      "constant": true
    },
    {
      "inputs": [
        {
          "internalType": "address",
          "name": "owner",
          "type": "address"
        },
        {
          "internalType": "address",
          "name": "operator",
          "type": "address"
        }
      ],
      "name": "isApprovedForAll",
      "outputs": [
        {
          "internalType": "bool",
          "name": "",
          "type": "bool"
        }
      ],
      "stateMutability": "view",
      "type": "function",
      "constant": true
    },
    {
      "inputs": [],
      "name": "name",
      "outputs": [
        {
          "internalType": "string",
          "name": "",
          "type": "string"
        }
      ],
      "stateMutability": "view",
      "type": "function",
      "constant": true
    },
    {
      "inputs": [],
      "name": "owner",
      "outputs": [
        {
          "internalType": "address",
          "name": "",
          "type": "address"
        }
      ],
      "stateMutability": "view",
      "type": "function",
      "constant": true
    },
    {
      "inputs": [
        {
          "internalType": "uint256",
          "name": "tokenId",
          "type": "uint256"
        }
      ],
      "name": "ownerOf",
      "outputs": [
        {
          "internalType": "address",
          "name": "",
          "type": "address"
        }
      ],
      "stateMutability": "view",
      "type": "function",
      "constant": true
    },
    {
      "inputs": [],
      "name": "renounceOwnership",
      "outputs": [],
      "stateMutability": "nonpayable",
      "type": "function"
    },
    {
      "inputs": [
        {
          "internalType": "address",
          "name": "from",
          "type": "address"
        },
        {
          "internalType": "address",
          "name": "to",
          "type": "address"
        },
        {
          "internalType": "uint256",
          "name": "tokenId",
          "type": "uint256"
        }
      ],
      "name": "safeTransferFrom",
      "outputs": [],
      "stateMutability": "nonpayable",
      "type": "function"
    },
    {
      "inputs": [
        {
          "internalType": "address",
          "name": "from",
          "type": "address"
        },
        {
          "internalType": "address",
          "name": "to",
          "type": "address"
        },
        {
          "internalType": "uint256",
          "name": "tokenId",
          "type": "uint256"
        },
        {
          "internalType": "bytes",
          "name": "_data",
          "type": "bytes"
        }
      ],
      "name": "safeTransferFrom",
      "outputs": [],
      "stateMutability": "nonpayable",
      "type": "function"
    },
    {
      "inputs": [
        {
          "internalType": "address",
          "name": "operator",
          "type": "address"
        },
        {
          "internalType": "bool",
          "name": "approved",
          "type": "bool"
        }
      ],
      "name": "setApprovalForAll",
      "outputs": [],
      "stateMutability": "nonpayable",
      "type": "function"
    },
    {
      "inputs": [
        {
          "internalType": "bytes4",
          "name": "interfaceId",
          "type": "bytes4"
        }
      ],
      "name": "supportsInterface",
      "outputs": [
        {
          "internalType": "bool",
          "name": "",
          "type": "bool"
        }
      ],
      "stateMutability": "view",
      "type": "function",
      "constant": true
    },
    {
      "inputs": [],
      "name": "symbol",
      "outputs": [
        {
          "internalType": "string",
          "name": "",
          "type": "string"
        }
      ],
      "stateMutability": "view",
      "type": "function",
      "constant": true
    },
    {
      "inputs": [
        {
          "internalType": "uint256",
          "name": "tokenId",
          "type": "uint256"
        }
      ],
      "name": "tokenURI",
      "outputs": [
        {
          "internalType": "string",
          "name": "",
          "type": "string"
        }
      ],
      "stateMutability": "view",
      "type": "function",
      "constant": true
    },
    {
      "inputs": [
        {
          "internalType": "address",
          "name": "from",
          "type": "address"
        },
        {
          "internalType": "address",
          "name": "to",
          "type": "address"
        },
        {
          "internalType": "uint256",
          "name": "tokenId",
          "type": "uint256"
        }
      ],
      "name": "transferFrom",
      "outputs": [],
      "stateMutability": "nonpayable",
      "type": "function"
    },
    {
      "inputs": [
        {
          "internalType": "address",
          "name": "newOwner",
          "type": "address"
        }
      ],
      "name": "transferOwnership",
      "outputs": [],
      "stateMutability": "nonpayable",
      "type": "function"
    },
    {
      "inputs": [
        {
          "internalType": "uint256",
          "name": "_DNA",
          "type": "uint256"
        },
        {
          "internalType": "address",
          "name": "_to",
          "type": "address"
        }
      ],
      "name": "createKittyGen0",
      "outputs": [],
      "stateMutability": "nonpayable",
      "type": "function"
    },
    {
      "inputs": [
        {
          "internalType": "uint256",
          "name": "ID",
          "type": "uint256"
        }
      ],
      "name": "getcat",
      "outputs": [
        {
          "components": [
            {
              "internalType": "uint256",
              "name": "motherID",
              "type": "uint256"
            },
            {
              "internalType": "uint256",
              "name": "fatherID",
              "type": "uint256"
            },
            {
              "internalType": "uint256",
              "name": "DNA",
              "type": "uint256"
            },
            {
              "internalType": "uint256",
              "name": "Generation",
              "type": "uint256"
            },
            {
              "internalType": "uint64",
              "name": "birthtime",
              "type": "uint64"
            }
          ],
          "internalType": "struct kitties.cat",
          "name": "",
          "type": "tuple"
        }
      ],
      "stateMutability": "view",
      "type": "function",
      "constant": true
    }
  ],
  "bytecode": "0x60806040523480156200001157600080fd5b506040518060400160405280600681526020017f4b696c63617400000000000000000000000000000000000000000000000000008152506040518060400160405280600381526020017f4b4c43000000000000000000000000000000000000000000000000000000000081525081600090805190602001906200009692919062000171565b508060019080519060200190620000af92919062000171565b5050506000620000c46200016960201b60201c565b905080600660006101000a81548173ffffffffffffffffffffffffffffffffffffffff021916908373ffffffffffffffffffffffffffffffffffffffff1602179055508073ffffffffffffffffffffffffffffffffffffffff16600073ffffffffffffffffffffffffffffffffffffffff167f8be0079c531659141344cd1fd0a4f28419497f9722a3daafe3b4186f6b6457e060405160405180910390a35062000286565b600033905090565b8280546200017f9062000221565b90600052602060002090601f016020900481019282620001a35760008555620001ef565b82601f10620001be57805160ff1916838001178555620001ef565b82800160010185558215620001ef579182015b82811115620001ee578251825591602001919060010190620001d1565b5b509050620001fe919062000202565b5090565b5b808211156200021d57600081600090555060010162000203565b5090565b600060028204905060018216806200023a57607f821691505b6020821081141562000251576200025062000257565b5b50919050565b7f4e487b7100000000000000000000000000000000000000000000000000000000600052602260045260246000fd5b612ef680620002966000396000f3fe608060405234801561001057600080fd5b50600436106101165760003560e01c806376666e51116100a2578063b88d4fde11610071578063b88d4fde146102cb578063bcee450d146102e7578063c87b56dd14610317578063e985e9c514610347578063f2fde38b1461037757610116565b806376666e51146102575780638da5cb5b1461027357806395d89b4114610291578063a22cb465146102af57610116565b806323b872dd116100e957806323b872dd146101b557806342842e0e146101d15780636352211e146101ed57806370a082311461021d578063715018a61461024d57610116565b806301ffc9a71461011b57806306fdde031461014b578063081812fc14610169578063095ea7b314610199575b600080fd5b61013560048036038101906101309190611f7f565b610393565b60405161014291906127ee565b60405180910390f35b610153610475565b6040516101609190612809565b60405180910390f35b610183600480360381019061017e9190611fd1565b610507565b6040516101909190612787565b60405180910390f35b6101b360048036038101906101ae9190611f43565b61058c565b005b6101cf60048036038101906101ca9190611e3d565b6106a4565b005b6101eb60048036038101906101e69190611e3d565b610704565b005b61020760048036038101906102029190611fd1565b610724565b6040516102149190612787565b60405180910390f35b61023760048036038101906102329190611dd8565b6107d6565b6040516102449190612a46565b60405180910390f35b61025561088e565b005b610271600480360381019061026c9190611ffa565b6109cb565b005b61027b610a74565b6040516102889190612787565b60405180910390f35b610299610a9e565b6040516102a69190612809565b60405180910390f35b6102c960048036038101906102c49190611f07565b610b30565b005b6102e560048036038101906102e09190611e8c565b610cb1565b005b61030160048036038101906102fc9190611fd1565b610d13565b60405161030e9190612a2b565b60405180910390f35b610331600480360381019061032c9190611fd1565b610ded565b60405161033e9190612809565b60405180910390f35b610361600480360381019061035c9190611e01565b610e94565b60405161036e91906127ee565b60405180910390f35b610391600480360381019061038c9190611dd8565b610f28565b005b60007f80ac58cd000000000000000000000000000000000000000000000000000000007bffffffffffffffffffffffffffffffffffffffffffffffffffffffff1916827bffffffffffffffffffffffffffffffffffffffffffffffffffffffff1916148061045e57507f5b5e139f000000000000000000000000000000000000000000000000000000007bffffffffffffffffffffffffffffffffffffffffffffffffffffffff1916827bffffffffffffffffffffffffffffffffffffffffffffffffffffffff1916145b8061046e575061046d826110d4565b5b9050919050565b60606000805461048490612ceb565b80601f01602080910402602001604051908101604052809291908181526020018280546104b090612ceb565b80156104fd5780601f106104d2576101008083540402835291602001916104fd565b820191906000526020600020905b8154815290600101906020018083116104e057829003601f168201915b5050505050905090565b60006105128261113e565b610551576040517f08c379a00000000000000000000000000000000000000000000000000000000081526004016105489061296b565b60405180910390fd5b6004600083815260200190815260200160002060009054906101000a900473ffffffffffffffffffffffffffffffffffffffff169050919050565b600061059782610724565b90508073ffffffffffffffffffffffffffffffffffffffff168373ffffffffffffffffffffffffffffffffffffffff161415610608576040517f08c379a00000000000000000000000000000000000000000000000000000000081526004016105ff906129eb565b60405180910390fd5b8073ffffffffffffffffffffffffffffffffffffffff166106276111aa565b73ffffffffffffffffffffffffffffffffffffffff1614806106565750610655816106506111aa565b610e94565b5b610695576040517f08c379a000000000000000000000000000000000000000000000000000000000815260040161068c906128eb565b60405180910390fd5b61069f83836111b2565b505050565b6106b56106af6111aa565b8261126b565b6106f4576040517f08c379a00000000000000000000000000000000000000000000000000000000081526004016106eb90612a0b565b60405180910390fd5b6106ff838383611349565b505050565b61071f83838360405180602001604052806000815250610cb1565b505050565b6000806002600084815260200190815260200160002060009054906101000a900473ffffffffffffffffffffffffffffffffffffffff169050600073ffffffffffffffffffffffffffffffffffffffff168173ffffffffffffffffffffffffffffffffffffffff1614156107cd576040517f08c379a00000000000000000000000000000000000000000000000000000000081526004016107c49061292b565b60405180910390fd5b80915050919050565b60008073ffffffffffffffffffffffffffffffffffffffff168273ffffffffffffffffffffffffffffffffffffffff161415610847576040517f08c379a000000000000000000000000000000000000000000000000000000000815260040161083e9061290b565b60405180910390fd5b600360008373ffffffffffffffffffffffffffffffffffffffff1673ffffffffffffffffffffffffffffffffffffffff168152602001908152602001600020549050919050565b6108966111aa565b73ffffffffffffffffffffffffffffffffffffffff166108b4610a74565b73ffffffffffffffffffffffffffffffffffffffff161461090a576040517f08c379a00000000000000000000000000000000000000000000000000000000081526004016109019061298b565b60405180910390fd5b600073ffffffffffffffffffffffffffffffffffffffff16600660009054906101000a900473ffffffffffffffffffffffffffffffffffffffff1673ffffffffffffffffffffffffffffffffffffffff167f8be0079c531659141344cd1fd0a4f28419497f9722a3daafe3b4186f6b6457e060405160405180910390a36000600660006101000a81548173ffffffffffffffffffffffffffffffffffffffff021916908373ffffffffffffffffffffffffffffffffffffffff160217905550565b6109d36111aa565b73ffffffffffffffffffffffffffffffffffffffff166109f1610a74565b73ffffffffffffffffffffffffffffffffffffffff1614610a47576040517f08c379a0000000000000000000000000000000000000000000000000000000008152600401610a3e9061298b565b60405180910390fd5b610a556000808460006115a5565b610a70816001600780549050610a6b9190612bed565b6116b8565b5050565b6000600660009054906101000a900473ffffffffffffffffffffffffffffffffffffffff16905090565b606060018054610aad90612ceb565b80601f0160208091040260200160405190810160405280929190818152602001828054610ad990612ceb565b8015610b265780601f10610afb57610100808354040283529160200191610b26565b820191906000526020600020905b815481529060010190602001808311610b0957829003601f168201915b5050505050905090565b610b386111aa565b73ffffffffffffffffffffffffffffffffffffffff168273ffffffffffffffffffffffffffffffffffffffff161415610ba6576040517f08c379a0000000000000000000000000000000000000000000000000000000008152600401610b9d906128ab565b60405180910390fd5b8060056000610bb36111aa565b73ffffffffffffffffffffffffffffffffffffffff1673ffffffffffffffffffffffffffffffffffffffff16815260200190815260200160002060008473ffffffffffffffffffffffffffffffffffffffff1673ffffffffffffffffffffffffffffffffffffffff16815260200190815260200160002060006101000a81548160ff0219169083151502179055508173ffffffffffffffffffffffffffffffffffffffff16610c606111aa565b73ffffffffffffffffffffffffffffffffffffffff167f17307eab39ab6107e8899845ad3d59bd9653f200f220920489ca2b5937696c3183604051610ca591906127ee565b60405180910390a35050565b610cc2610cbc6111aa565b8361126b565b610d01576040517f08c379a0000000000000000000000000000000000000000000000000000000008152600401610cf890612a0b565b60405180910390fd5b610d0d848484846116d6565b50505050565b610d1b611cce565b816001600780549050610d2e9190612bed565b1015610d3957600080fd5b60078281548110610d73577f4e487b7100000000000000000000000000000000000000000000000000000000600052603260045260246000fd5b90600052602060002090600502016040518060a0016040529081600082015481526020016001820154815260200160028201548152602001600382015481526020016004820160009054906101000a900467ffffffffffffffff1667ffffffffffffffff1667ffffffffffffffff16815250509050919050565b6060610df88261113e565b610e37576040517f08c379a0000000000000000000000000000000000000000000000000000000008152600401610e2e906129cb565b60405180910390fd5b6000610e41611732565b90506000815111610e615760405180602001604052806000815250610e8c565b80610e6b84611749565b604051602001610e7c929190612763565b6040516020818303038152906040525b915050919050565b6000600560008473ffffffffffffffffffffffffffffffffffffffff1673ffffffffffffffffffffffffffffffffffffffff16815260200190815260200160002060008373ffffffffffffffffffffffffffffffffffffffff1673ffffffffffffffffffffffffffffffffffffffff16815260200190815260200160002060009054906101000a900460ff16905092915050565b610f306111aa565b73ffffffffffffffffffffffffffffffffffffffff16610f4e610a74565b73ffffffffffffffffffffffffffffffffffffffff1614610fa4576040517f08c379a0000000000000000000000000000000000000000000000000000000008152600401610f9b9061298b565b60405180910390fd5b600073ffffffffffffffffffffffffffffffffffffffff168173ffffffffffffffffffffffffffffffffffffffff161415611014576040517f08c379a000000000000000000000000000000000000000000000000000000000815260040161100b9061284b565b60405180910390fd5b8073ffffffffffffffffffffffffffffffffffffffff16600660009054906101000a900473ffffffffffffffffffffffffffffffffffffffff1673ffffffffffffffffffffffffffffffffffffffff167f8be0079c531659141344cd1fd0a4f28419497f9722a3daafe3b4186f6b6457e060405160405180910390a380600660006101000a81548173ffffffffffffffffffffffffffffffffffffffff021916908373ffffffffffffffffffffffffffffffffffffffff16021790555050565b60007f01ffc9a7000000000000000000000000000000000000000000000000000000007bffffffffffffffffffffffffffffffffffffffffffffffffffffffff1916827bffffffffffffffffffffffffffffffffffffffffffffffffffffffff1916149050919050565b60008073ffffffffffffffffffffffffffffffffffffffff166002600084815260200190815260200160002060009054906101000a900473ffffffffffffffffffffffffffffffffffffffff1673ffffffffffffffffffffffffffffffffffffffff1614159050919050565b600033905090565b816004600083815260200190815260200160002060006101000a81548173ffffffffffffffffffffffffffffffffffffffff021916908373ffffffffffffffffffffffffffffffffffffffff160217905550808273ffffffffffffffffffffffffffffffffffffffff1661122583610724565b73ffffffffffffffffffffffffffffffffffffffff167f8c5be1e5ebec7d5bd14f71427d1e84f3dd0314c0f7b2291e5b200ac8c7c3b92560405160405180910390a45050565b60006112768261113e565b6112b5576040517f08c379a00000000000000000000000000000000000000000000000000000000081526004016112ac906128cb565b60405180910390fd5b60006112c083610724565b90508073ffffffffffffffffffffffffffffffffffffffff168473ffffffffffffffffffffffffffffffffffffffff16148061132f57508373ffffffffffffffffffffffffffffffffffffffff1661131784610507565b73ffffffffffffffffffffffffffffffffffffffff16145b80611340575061133f8185610e94565b5b91505092915050565b8273ffffffffffffffffffffffffffffffffffffffff1661136982610724565b73ffffffffffffffffffffffffffffffffffffffff16146113bf576040517f08c379a00000000000000000000000000000000000000000000000000000000081526004016113b6906129ab565b60405180910390fd5b600073ffffffffffffffffffffffffffffffffffffffff168273ffffffffffffffffffffffffffffffffffffffff16141561142f576040517f08c379a00000000000000000000000000000000000000000000000000000000081526004016114269061288b565b60405180910390fd5b61143a8383836118f6565b6114456000826111b2565b6001600360008573ffffffffffffffffffffffffffffffffffffffff1673ffffffffffffffffffffffffffffffffffffffff16815260200190815260200160002060008282546114959190612bed565b925050819055506001600360008473ffffffffffffffffffffffffffffffffffffffff1673ffffffffffffffffffffffffffffffffffffffff16815260200190815260200160002060008282546114ec9190612b66565b92505081905550816002600083815260200190815260200160002060006101000a81548173ffffffffffffffffffffffffffffffffffffffff021916908373ffffffffffffffffffffffffffffffffffffffff160217905550808273ffffffffffffffffffffffffffffffffffffffff168473ffffffffffffffffffffffffffffffffffffffff167fddf252ad1be2c89b69c2b068fc378daa952ba7f163c4a11628f55a4df523b3ef60405160405180910390a4505050565b60006040518060a001604052808681526020018581526020018481526020018381526020014267ffffffffffffffff16815250905060078190806001815401808255809150506001900390600052602060002090600502016000909190919091506000820151816000015560208201518160010155604082015181600201556060820151816003015560808201518160040160006101000a81548167ffffffffffffffff021916908367ffffffffffffffff16021790555050507fdc44a580328373e0b3e32960ccf0d183614b56e78a2dee7c996053cd25819e1660016007805490506116929190612bed565b86868686426040516116a996959493929190612a61565b60405180910390a15050505050565b6116d28282604051806020016040528060008152506118fb565b5050565b6116e1848484611349565b6116ed84848484611956565b61172c576040517f08c379a00000000000000000000000000000000000000000000000000000000081526004016117239061282b565b60405180910390fd5b50505050565b606060405180602001604052806000815250905090565b60606000821415611791576040518060400160405280600181526020017f300000000000000000000000000000000000000000000000000000000000000081525090506118f1565b600082905060005b600082146117c35780806117ac90612d1d565b915050600a826117bc9190612bbc565b9150611799565b60008167ffffffffffffffff811115611805577f4e487b7100000000000000000000000000000000000000000000000000000000600052604160045260246000fd5b6040519080825280601f01601f1916602001820160405280156118375781602001600182028036833780820191505090505b5090505b600085146118ea576001826118509190612bed565b9150600a8561185f9190612d66565b603061186b9190612b66565b60f81b8183815181106118a7577f4e487b7100000000000000000000000000000000000000000000000000000000600052603260045260246000fd5b60200101907effffffffffffffffffffffffffffffffffffffffffffffffffffffffffffff1916908160001a905350600a856118e39190612bbc565b945061183b565b8093505050505b919050565b505050565b6119058383611aed565b6119126000848484611956565b611951576040517f08c379a00000000000000000000000000000000000000000000000000000000081526004016119489061282b565b60405180910390fd5b505050565b60006119778473ffffffffffffffffffffffffffffffffffffffff16611cbb565b15611ae0578373ffffffffffffffffffffffffffffffffffffffff1663150b7a026119a06111aa565b8786866040518563ffffffff1660e01b81526004016119c294939291906127a2565b602060405180830381600087803b1580156119dc57600080fd5b505af1925050508015611a0d57506040513d601f19601f82011682018060405250810190611a0a9190611fa8565b60015b611a90573d8060008114611a3d576040519150601f19603f3d011682016040523d82523d6000602084013e611a42565b606091505b50600081511415611a88576040517f08c379a0000000000000000000000000000000000000000000000000000000008152600401611a7f9061282b565b60405180910390fd5b805181602001fd5b63150b7a0260e01b7bffffffffffffffffffffffffffffffffffffffffffffffffffffffff1916817bffffffffffffffffffffffffffffffffffffffffffffffffffffffff191614915050611ae5565b600190505b949350505050565b600073ffffffffffffffffffffffffffffffffffffffff168273ffffffffffffffffffffffffffffffffffffffff161415611b5d576040517f08c379a0000000000000000000000000000000000000000000000000000000008152600401611b549061294b565b60405180910390fd5b611b668161113e565b15611ba6576040517f08c379a0000000000000000000000000000000000000000000000000000000008152600401611b9d9061286b565b60405180910390fd5b611bb2600083836118f6565b6001600360008473ffffffffffffffffffffffffffffffffffffffff1673ffffffffffffffffffffffffffffffffffffffff1681526020019081526020016000206000828254611c029190612b66565b92505081905550816002600083815260200190815260200160002060006101000a81548173ffffffffffffffffffffffffffffffffffffffff021916908373ffffffffffffffffffffffffffffffffffffffff160217905550808273ffffffffffffffffffffffffffffffffffffffff16600073ffffffffffffffffffffffffffffffffffffffff167fddf252ad1be2c89b69c2b068fc378daa952ba7f163c4a11628f55a4df523b3ef60405160405180910390a45050565b600080823b905060008111915050919050565b6040518060a0016040528060008152602001600081526020016000815260200160008152602001600067ffffffffffffffff1681525090565b6000611d1a611d1584612af3565b612ac2565b905082815260208101848484011115611d3257600080fd5b611d3d848285612ca9565b509392505050565b600081359050611d5481612e64565b92915050565b600081359050611d6981612e7b565b92915050565b600081359050611d7e81612e92565b92915050565b600081519050611d9381612e92565b92915050565b600082601f830112611daa57600080fd5b8135611dba848260208601611d07565b91505092915050565b600081359050611dd281612ea9565b92915050565b600060208284031215611dea57600080fd5b6000611df884828501611d45565b91505092915050565b60008060408385031215611e1457600080fd5b6000611e2285828601611d45565b9250506020611e3385828601611d45565b9150509250929050565b600080600060608486031215611e5257600080fd5b6000611e6086828701611d45565b9350506020611e7186828701611d45565b9250506040611e8286828701611dc3565b9150509250925092565b60008060008060808587031215611ea257600080fd5b6000611eb087828801611d45565b9450506020611ec187828801611d45565b9350506040611ed287828801611dc3565b925050606085013567ffffffffffffffff811115611eef57600080fd5b611efb87828801611d99565b91505092959194509250565b60008060408385031215611f1a57600080fd5b6000611f2885828601611d45565b9250506020611f3985828601611d5a565b9150509250929050565b60008060408385031215611f5657600080fd5b6000611f6485828601611d45565b9250506020611f7585828601611dc3565b9150509250929050565b600060208284031215611f9157600080fd5b6000611f9f84828501611d6f565b91505092915050565b600060208284031215611fba57600080fd5b6000611fc884828501611d84565b91505092915050565b600060208284031215611fe357600080fd5b6000611ff184828501611dc3565b91505092915050565b6000806040838503121561200d57600080fd5b600061201b85828601611dc3565b925050602061202c85828601611d45565b9150509250929050565b61203f81612c21565b82525050565b61204e81612c33565b82525050565b600061205f82612b23565b6120698185612b39565b9350612079818560208601612cb8565b61208281612e53565b840191505092915050565b600061209882612b2e565b6120a28185612b4a565b93506120b2818560208601612cb8565b6120bb81612e53565b840191505092915050565b60006120d182612b2e565b6120db8185612b5b565b93506120eb818560208601612cb8565b80840191505092915050565b6000612104603283612b4a565b91507f4552433732313a207472616e7366657220746f206e6f6e20455243373231526560008301527f63656976657220696d706c656d656e74657200000000000000000000000000006020830152604082019050919050565b600061216a602683612b4a565b91507f4f776e61626c653a206e6577206f776e657220697320746865207a65726f206160008301527f64647265737300000000000000000000000000000000000000000000000000006020830152604082019050919050565b60006121d0601c83612b4a565b91507f4552433732313a20746f6b656e20616c7265616479206d696e746564000000006000830152602082019050919050565b6000612210602483612b4a565b91507f4552433732313a207472616e7366657220746f20746865207a65726f2061646460008301527f72657373000000000000000000000000000000000000000000000000000000006020830152604082019050919050565b6000612276601983612b4a565b91507f4552433732313a20617070726f766520746f2063616c6c6572000000000000006000830152602082019050919050565b60006122b6602c83612b4a565b91507f4552433732313a206f70657261746f7220717565727920666f72206e6f6e657860008301527f697374656e7420746f6b656e00000000000000000000000000000000000000006020830152604082019050919050565b600061231c603883612b4a565b91507f4552433732313a20617070726f76652063616c6c6572206973206e6f74206f7760008301527f6e6572206e6f7220617070726f76656420666f7220616c6c00000000000000006020830152604082019050919050565b6000612382602a83612b4a565b91507f4552433732313a2062616c616e636520717565727920666f7220746865207a6560008301527f726f2061646472657373000000000000000000000000000000000000000000006020830152604082019050919050565b60006123e8602983612b4a565b91507f4552433732313a206f776e657220717565727920666f72206e6f6e657869737460008301527f656e7420746f6b656e00000000000000000000000000000000000000000000006020830152604082019050919050565b600061244e602083612b4a565b91507f4552433732313a206d696e7420746f20746865207a65726f20616464726573736000830152602082019050919050565b600061248e602c83612b4a565b91507f4552433732313a20617070726f76656420717565727920666f72206e6f6e657860008301527f697374656e7420746f6b656e00000000000000000000000000000000000000006020830152604082019050919050565b60006124f4602083612b4a565b91507f4f776e61626c653a2063616c6c6572206973206e6f7420746865206f776e65726000830152602082019050919050565b6000612534602983612b4a565b91507f4552433732313a207472616e73666572206f6620746f6b656e2074686174206960008301527f73206e6f74206f776e00000000000000000000000000000000000000000000006020830152604082019050919050565b600061259a602f83612b4a565b91507f4552433732314d657461646174613a2055524920717565727920666f72206e6f60008301527f6e6578697374656e7420746f6b656e00000000000000000000000000000000006020830152604082019050919050565b6000612600602183612b4a565b91507f4552433732313a20617070726f76616c20746f2063757272656e74206f776e6560008301527f72000000000000000000000000000000000000000000000000000000000000006020830152604082019050919050565b6000612666603183612b4a565b91507f4552433732313a207472616e736665722063616c6c6572206973206e6f74206f60008301527f776e6572206e6f7220617070726f7665640000000000000000000000000000006020830152604082019050919050565b60a0820160008201516126d56000850182612727565b5060208201516126e86020850182612727565b5060408201516126fb6040850182612727565b50606082015161270e6060850182612727565b5060808201516127216080850182612745565b50505050565b61273081612c8b565b82525050565b61273f81612c8b565b82525050565b61274e81612c95565b82525050565b61275d81612c95565b82525050565b600061276f82856120c6565b915061277b82846120c6565b91508190509392505050565b600060208201905061279c6000830184612036565b92915050565b60006080820190506127b76000830187612036565b6127c46020830186612036565b6127d16040830185612736565b81810360608301526127e38184612054565b905095945050505050565b60006020820190506128036000830184612045565b92915050565b60006020820190508181036000830152612823818461208d565b905092915050565b60006020820190508181036000830152612844816120f7565b9050919050565b600060208201905081810360008301526128648161215d565b9050919050565b60006020820190508181036000830152612884816121c3565b9050919050565b600060208201905081810360008301526128a481612203565b9050919050565b600060208201905081810360008301526128c481612269565b9050919050565b600060208201905081810360008301526128e4816122a9565b9050919050565b600060208201905081810360008301526129048161230f565b9050919050565b6000602082019050818103600083015261292481612375565b9050919050565b60006020820190508181036000830152612944816123db565b9050919050565b6000602082019050818103600083015261296481612441565b9050919050565b6000602082019050818103600083015261298481612481565b9050919050565b600060208201905081810360008301526129a4816124e7565b9050919050565b600060208201905081810360008301526129c481612527565b9050919050565b600060208201905081810360008301526129e48161258d565b9050919050565b60006020820190508181036000830152612a04816125f3565b9050919050565b60006020820190508181036000830152612a2481612659565b9050919050565b600060a082019050612a4060008301846126bf565b92915050565b6000602082019050612a5b6000830184612736565b92915050565b600060c082019050612a766000830189612736565b612a836020830188612736565b612a906040830187612736565b612a9d6060830186612736565b612aaa6080830185612736565b612ab760a0830184612754565b979650505050505050565b6000604051905081810181811067ffffffffffffffff82111715612ae957612ae8612e24565b5b8060405250919050565b600067ffffffffffffffff821115612b0e57612b0d612e24565b5b601f19601f8301169050602081019050919050565b600081519050919050565b600081519050919050565b600082825260208201905092915050565b600082825260208201905092915050565b600081905092915050565b6000612b7182612c8b565b9150612b7c83612c8b565b9250827fffffffffffffffffffffffffffffffffffffffffffffffffffffffffffffffff03821115612bb157612bb0612d97565b5b828201905092915050565b6000612bc782612c8b565b9150612bd283612c8b565b925082612be257612be1612dc6565b5b828204905092915050565b6000612bf882612c8b565b9150612c0383612c8b565b925082821015612c1657612c15612d97565b5b828203905092915050565b6000612c2c82612c6b565b9050919050565b60008115159050919050565b60007fffffffff0000000000000000000000000000000000000000000000000000000082169050919050565b600073ffffffffffffffffffffffffffffffffffffffff82169050919050565b6000819050919050565b600067ffffffffffffffff82169050919050565b82818337600083830152505050565b60005b83811015612cd6578082015181840152602081019050612cbb565b83811115612ce5576000848401525b50505050565b60006002820490506001821680612d0357607f821691505b60208210811415612d1757612d16612df5565b5b50919050565b6000612d2882612c8b565b91507fffffffffffffffffffffffffffffffffffffffffffffffffffffffffffffffff821415612d5b57612d5a612d97565b5b600182019050919050565b6000612d7182612c8b565b9150612d7c83612c8b565b925082612d8c57612d8b612dc6565b5b828206905092915050565b7f4e487b7100000000000000000000000000000000000000000000000000000000600052601160045260246000fd5b7f4e487b7100000000000000000000000000000000000000000000000000000000600052601260045260246000fd5b7f4e487b7100000000000000000000000000000000000000000000000000000000600052602260045260246000fd5b7f4e487b7100000000000000000000000000000000000000000000000000000000600052604160045260246000fd5b6000601f19601f8301169050919050565b612e6d81612c21565b8114612e7857600080fd5b50565b612e8481612c33565b8114612e8f57600080fd5b50565b612e9b81612c3f565b8114612ea657600080fd5b50565b612eb281612c8b565b8114612ebd57600080fd5b5056fea2646970667358221220e990f467478da97567f6994e2360f5d27290b31d385ec7b53443ffd1917327c164736f6c63430008000033",
  "immutableReferences": {},
  "source": "pragma solidity 0.8.0;\r\n\r\nimport \"../node_modules/@openzeppelin/contracts/token/ERC721/ERC721.sol\";\r\nimport \"../node_modules/@openzeppelin/contracts/access/Ownable.sol\";\r\n\r\ncontract kitties is ERC721, Ownable {\r\n\r\n    constructor () ERC721(\"Kilcat\", \"KLC\") Ownable(){\r\n    }\r\n\r\n    event catbirth(uint256 id, uint256 motherID, uint256 fatherID, uint256 DNA, uint256 Generation, uint64 birthtime);\r\n\r\n    struct cat {\r\n        uint256 motherID;\r\n        uint256 fatherID;\r\n        uint256 DNA;\r\n        uint256 Generation;\r\n        uint64 birthtime;\r\n    }\r\n    cat[] cats;\r\n\r\n    function createKittyGen0(uint256 _DNA, address _to) public onlyOwner {\r\n    _createkitty(0, 0, _DNA, 0);\r\n    _safeMint( _to, cats.length-1);\r\n    }\r\n\r\n    function _createkitty(uint256 _motherID, uint256 _fatherID, uint256 _DNA, uint256 _Generation) private {\r\n    cat memory _newcat= cat(_motherID, _fatherID, _DNA, _Generation, uint64(block.timestamp));\r\n    cats.push(_newcat);\r\n    emit catbirth(cats.length-1, _motherID, _fatherID, _DNA, _Generation, uint64(block.timestamp));\r\n    }\r\n\r\n    function getcat(uint256 ID) public view returns(cat memory){\r\n    require(cats.length - 1 >= ID); \r\n    return cats[ID]; \r\n    }\r\n}",
  "sourcePath": "C:/Users/kilia/Documents/Ethereum 201/academy-kitties-template-master/contracts/kitty.sol",
  "compiler": {
    "name": "solc",
    "version": "0.8.0+commit.c7dfd78e.Emscripten.clang"
  },
  "schemaVersion": "3.3.4",
  "updatedAt": "2021-05-02T19:12:18.787Z",
  "networkType": "ethereum",
  "devdoc": {
    "kind": "dev",
    "methods": {
      "approve(address,uint256)": {
        "details": "See {IERC721-approve}."
      },
      "balanceOf(address)": {
        "details": "See {IERC721-balanceOf}."
      },
      "getApproved(uint256)": {
        "details": "See {IERC721-getApproved}."
      },
      "isApprovedForAll(address,address)": {
        "details": "See {IERC721-isApprovedForAll}."
      },
      "name()": {
        "details": "See {IERC721Metadata-name}."
      },
      "owner()": {
        "details": "Returns the address of the current owner."
      },
      "ownerOf(uint256)": {
        "details": "See {IERC721-ownerOf}."
      },
      "renounceOwnership()": {
        "details": "Leaves the contract without owner. It will not be possible to call `onlyOwner` functions anymore. Can only be called by the current owner. NOTE: Renouncing ownership will leave the contract without an owner, thereby removing any functionality that is only available to the owner."
      },
      "safeTransferFrom(address,address,uint256)": {
        "details": "See {IERC721-safeTransferFrom}."
      },
      "safeTransferFrom(address,address,uint256,bytes)": {
        "details": "See {IERC721-safeTransferFrom}."
      },
      "setApprovalForAll(address,bool)": {
        "details": "See {IERC721-setApprovalForAll}."
      },
      "supportsInterface(bytes4)": {
        "details": "See {IERC165-supportsInterface}."
      },
      "symbol()": {
        "details": "See {IERC721Metadata-symbol}."
      },
      "tokenURI(uint256)": {
        "details": "See {IERC721Metadata-tokenURI}."
      },
      "transferFrom(address,address,uint256)": {
        "details": "See {IERC721-transferFrom}."
      },
      "transferOwnership(address)": {
        "details": "Transfers ownership of the contract to a new account (`newOwner`). Can only be called by the current owner."
      }
    },
    "version": 1
  },
  "userdoc": {
    "kind": "user",
    "methods": {},
    "version": 1
  }
}